:100200000C9476010C949E010C949E010C949E011A
:100210000C949E010C949E010C949E010C949E01E2
:100220000C949E010C949E010C949E010C949E01D2
:100230000C949E010C949E010C949E010C949E01C2
:100240000C949E010C949E010C949E010C949E01B2
:100250000C949E010C949E010C949E010C949E01A2
:100260000C949E010C949E010C949E010C949E0192
:100270000C949E010C949E010C949E010C949E0182
:100280000C949E010C949E010C949E010C949E0172
:100290000C9439240C94C3240C949D240C949E013A
:1002A000CDCCCC3D0AD7233C17B7D13877CC2B32F5
:1002B0009595E6241FB14F0A0000803FCDCCCC3D80
:1002C0006F12833A95BFD6337D1D9026B3CE010CB5
:1002D000000020410000C84200401C4620BCBE4C2B
:1002E000CA1B0E5AAEC59D742E250C2511241FBEA7
:1002F000CFEFCDBFDFE3DEBF2AE2A2E2B8E201C06A
:100300001D92A231B207E1F718E2A0E0B8E2E9EDF0
:10031000F4E602C005900D92A232B107D9F711E0C0
:10032000C5E7D1E004C02197FE010E948F2DC4379C
:10033000D107C9F70E94E3250C9416310C940001F3
:100340000895EF92FF920F931F93CF93DF937C0159
:10035000EB018B01040F151FC017D10759F0D7010E
:10036000ED91FC910480F581E02D6881C70109952C
:100370008993F2CFDF91CF911F910F91FF90EF9072
:1003800008950F931F93CF93DF93EC018B0180911E
:10039000C008E881F9810480F581E02D86FD13C055
:1003A000612FCE010995182FE881F9810480F5812C
:1003B000E02D602FCE010995082FC801DF91CF9164
:1003C0001F910F910895CE010995082FE881F981B9
:1003D0000480F581E02D612FCE010995182FEDCF16
:1003E00000006093C4088091C30887FFFCCF809110
:1003F000C40808958F929F92AF92BF92CF92DF92DE
:10040000EF92FF920F931F93CF93DF93FC018085B0
:10041000882319F081FF0EC07894DF91CF911F914E
:100420000F91FF90EF90DF90CF90BF90AF909F9093
:100430008F90089580FFF1CF82849384A484B58443
:10044000C12CD12C760110E09401A501B601C701A1
:10045000A0E00E94832D99F1217030E040E050E04F
:1004600060E070E080E090E00E94832DD9F0D0E061
:10047000C0E0103370F4C12FC695C695C69580E2D2
:10048000C89FE0011124C05FDB4F812F8770C80F28
:10049000D11DCF01810F911DDC0152968C91988165
:1004A000892B88839401A501B601C70101E00E9450
:1004B000682D49015A016B017C011F5FC5CF8684FD
:1004C0009784A088B188C12CD12C760110E29401C8
:1004D000A501B601C701A0E00E94832D09F49DCFBC
:1004E000217030E040E050E060E070E080E090E0BB
:1004F0000E94832DD9F0D0E0C0E0103370F4C12FFA
:10050000C695C695C695B0E2CB9FE0011124C05FA9
:10051000DB4F812F8770C80FD11DCF01810F911D37
:10052000DC0152968C919881892B88839401A501D6
:10053000B601C70101E00E94682D49015A016B0113
:100540007C011F5FC4CFFC016F3F710581F1808585
:1005500081FD2DC0603271055CF581E090E002C044
:10056000880F991F6A95E2F780959095092E000CE7
:10057000AA0BBB0B4285538564857585842395231F
:10058000A623B72382879387A487B587828593851F
:10059000A485B585892B8A2B8B2B49F48685978575
:1005A000A089B189892B8A2B8B2B09F41086089599
:1005B0006052710981E090E002C0880F991F6A952E
:1005C000E2F780959095092E000CAA0BBB0B46858F
:1005D00057856089718984239523A623B72386874D
:1005E0009787A08BB18BD2CFFC016F3F7105E9F1EA
:1005F000603371051CF082E08087089580858160FA
:10060000808760327105C4F481E090E002C0880FF9
:10061000991F6A95E2F7092E000CAA0BBB0B4285C5
:10062000538564857585842B952BA62BB72B8287E4
:100630009387A487B58708956052710981E090E09F
:1006400002C0880F991F6A95E2F7092E000CAA0BC9
:10065000BB0B4685578560897189842B952BA62B0A
:10066000B72B86879787A08BB18B0895E0ECF8E0D5
:1006700020812E7F2083FC0117820895E0ECF8E0B2
:1006800082818E7F82830895E0ECF8E08281816030
:1006900082830895FC0154894589252F30E0842FF9
:1006A00090E0821B930B541710F0CF96089501979A
:1006B0000895FC0192898389981761F0A389AE0F90
:1006C000BF2FB11D59968C9193899F5F9F73938B18
:1006D00090E008958FEF9FEF0895FC019289838940
:1006E000981731F08389E80FF11D818D90E008950E
:1006F0008FEF9FEF0895FC0192892389892F90E065
:10070000805C9F4F821B91098F7399270895CF9327
:10071000DF93EC01E881F9810680F781E02D0995EE
:10072000EC85FD8586818F738683EC85FD858581CB
:100730008F7585838B898A8B198ADF91CF91089574
:10074000CF93DF93FC0194898589C485D58598135F
:1007500006C08D818F7D8D83DF91CF910895A5890E
:10076000AE0FBF2FB11DA75ABF4F2C91858990E0C6
:1007700001968F739927858B80E48C83A485B5853A
:1007800012962C93948985899813E6CFA485B58514
:1007900015968C9115978F7D15968C938789882354
:1007A000D9F2808D80931301178AD6CFDC011C9675
:1007B000ED91FC910FB607FE03C0258125FD04C015
:1007C000248125FD0C94A0030895EF92FF920F93CE
:1007D0001F93CF93DF93EC0181E0898B9C898D89F6
:1007E00098131CC0AC85BD8514968C91149785FF19
:1007F00015C012966C93AC85BD8580E414968C93DD
:10080000EC85FD8585818F7D858381E090E0DF919A
:10081000CF911F910F91FF90EF900895809111015A
:1008200080FF08C080911301888F8E898093130107
:1008300081E08F8BF62E0C8910E00F5F1F4F0F7336
:100840001127E02E8D898E1104C0CE010E94D6039F
:10085000F9CFEC89EC0FFD2FF11DE75AFF4FF08225
:100860000C8BEC85FD8585818062CECFCF93DF93A5
:10087000FC0121892223C9F0EC018091110180FF44
:1008800008C080911301808F86898093130181E0D5
:10089000878BEC85FD85858185FD03C0848186FD80
:1008A00004C0CE010E94D603F4CFDF91CF9108950A
:1008B000CF93DF9390E0FC01EF53FD4520812F3F64
:1008C00071F0FC01E856FD45A08130E2A39FD00104
:1008D0001124BC5F6130710529F411962C93DF91CE
:1008E000CF91089581599D45EC01E881EF3F89F052
:1008F000CD014096E80FF92FF11D9FB7F89412969D
:100900002C9380816230710539F4886080839FBFA9
:10091000E6CFF0E0E0E0F1CF877FF8CF282F30E09E
:10092000F901EA5BFD45E081EE2309F1E13021F0B8
:10093000F0F0E63098F008954091010A21593D45C4
:10094000F90120812C5F81E090E001C0880F2A9599
:10095000EAF7809584238093010A089580E1E89F57
:10096000F0011124E05AF54F81818F7E8183089533
:10097000FF920F931F93CF93DF93082F10E0F8019E
:10098000EF53FD45F0809FEFF916A1F0EB0189329E
:1009900010F40E948E04F801E856FD45E08180E2E3
:1009A000E89FF0011124FC5F80818F2159F0CD2B4D
:1009B00039F4F682DF91CF911F910F91FF90089546
:1009C000F582F8CFD801A159BD458C91309771F0CF
:1009D0008F3F61F07096E80FF11D9FB7F89480810A
:1009E000CD2B39F4877F80839FBFE4CFF0E0E0E038
:1009F000F4CF8860F8CF0F931F93CF93082F10E0A8
:100A0000F801EF53FD45C081CF3FB9F0893210F4B2
:100A10000E948E04F801E856FD45E08180E2E89FDF
:100A2000F0011124FC5F8085C82381E090E009F487
:100A300080E0CF911F910F91089580E090E0F9CF71
:100A4000893210F40C94B8040895893210F40C948F
:100A500058040895CF92DF92EF92FF920F931F9365
:100A6000CF93DF93EC016A017B01022F89898823F0
:100A700039F0E881F9810288F389E02DCE010995EA
:100A800098898091E205892B8093E2051FB7F8943D
:100A900060E070E281EA97E0A70196010E94BE2C17
:100AA00069017A018FEFC81AD80AE80AF80AF694A1
:100AB000E794D794C794EC85FD8586818D7F8683E6
:100AC000EC85FD8586818683198AA09123110A2EE3
:100AD000000CBB0BA70196010E945E2D20E034E0C4
:100AE00040E050E00E943F2DEC85FD85C20ED31EF4
:100AF000E41EF51EC086D186EC85FD850783EC8556
:100B0000FD858681806C8683EC85FD858581806886
:100B100085838E8562E070E00E9425058F8561E007
:100B200070E00E9420058F8561E070E00E9425053D
:100B30001FBFDF91CF911F910F91FF90EF90DF903A
:100B4000CF900895CF93DF938FB7F89420919D288D
:100B500030919E2840919F285091A028E091BA0A98
:100B60009091B60A90FF06C02F5F3F4F4F4F5F4FE7
:100B7000E091BA0A8FBFA0919B28B0919C28C091A8
:100B80009928D0919A280E94E02CEC9F9001ED9F2B
:100B9000300D1124620F731F811D911DDF91CF91C4
:100BA00008958F929F92AF92BF92CF92DF92EF9271
:100BB000FF924B015C010E94A2056B017C01A8EE33
:100BC000B3E0A50194010E94E02CC60ED71EE81EDA
:100BD000F91EC616D706E806F90618F40E94A20503
:100BE000F8CF0E94A2056C157D058E059F05C8F300
:100BF000FF90EF90DF90CF90BF90AF909F908F903D
:100C000008952FB7F8946091952870919628809157
:100C10009728909198282FBF0895AF92BF92CF92B6
:100C2000DF92EF92FF920F931F93CF93DF936C01AC
:100C30007B018B01040F151FEB015E01AE18BF088D
:100C4000C017D10759F06991D601ED91FC9101903F
:100C5000F081E02DC6010995892B79F7C501DF9157
:100C6000CF911F910F91FF90EF90DF90CF90BF90A9
:100C7000AF90089581E00895CF92DF92EF92FF92B6
:100C8000CF93C82F0E9401066B017C01809102283E
:100C90008932C8F40E94FB04892BA9F0CC23B1F35C
:100CA0000E9401066C197D098E099F096031774207
:100CB0008105910558F7E0918B29F0918C293097A7
:100CC00029F30995E3CFCF91FF90EF90DF90CF907C
:100CD0000895CF93DF931F92CDB7DEB789836981E3
:100CE00082EA98E20F90DF91CF910C94F001CF93BC
:100CF000DF93D82FC62F80EE0E9469068D2F0E94A9
:100D000069068C2F0E946906C11105C08EEEDF9125
:100D1000CF910C946906DF91CF910895DF92EF9205
:100D2000FF920F931F93CF93DF93D82EE92E8B0161
:100D3000F42E812F0E946906802F0E946906CD2D16
:100D4000DE2D0C0F1D1FC017D10721F089910E94C5
:100D50006906F9CF81E0F8120AC08EEEDF91CF91DB
:100D60001F910F91FF90EF90DF900C946906DF9137
:100D7000CF911F910F91FF90EF90DF900895DF9238
:100D8000EF92FF920F931F93CF93DF937C01C62FB7
:100D9000D42E862F0E9469068701D0E0C8018E19E3
:100DA0009F098C179D0734F4F80181918F010E94EF
:100DB0006906F4CFF1E0DF120AC08EEEDF91CF9129
:100DC0001F910F91FF90EF90DF900C946906DF91D7
:100DD000CF911F910F91FF90EF90DF900895CF93E7
:100DE000DF93EC018FEF0E9469068883DF91CF913A
:100DF0000895CF93DF931F92CDB7DEB71982CE014E
:100E000001960E94EF0689810F90DF91CF9108959E
:100E1000CF93DF93C9EED3E00E94F9068F3E69F0CD
:100E2000219711F0803EC1F721E090E0803E09F06B
:100E300020E0822FDF91CF9108958FEF9FEFFACFBF
:100E4000CF92DF92EF92FF920F931F93CF93DF9396
:100E50001F92CDB7DEB7182F6B017A0119820E945D
:100E60000807892B61F490E080E00F90DF91CF912B
:100E70001F910F91FF90EF90DF90CF900895CE01DA
:100E800001960E94EF06106889811813ECCFCE01FD
:100E900001960E94EF068981813029F78FEF0E9429
:100EA0006906F701808310E000E0F7018081801778
:100EB000110649F044F0C601800F911F0E94EF0611
:100EC0000F5F1F4FF2CFCE0101960E94EF0681E027
:100ED00090E0CBCF6F927F928F929F92AF92BF9212
:100EE000CF92DF92EF92FF920F931F93CF93DF93F6
:100EF0001F92CDB7DEB7182F662E7A0119820E9495
:100F00000807892B91F490E080E00F90DF91CF915A
:100F10001F910F91FF90EF90DF90CF90BF90AF9017
:100F20009F908F907F906F900895CE0101960E94C0
:100F3000EF06106889811813E6CF0E94F906782E13
:100F4000882309F38701D12CC12C882E912CC81439
:100F5000D90404F58FEF0E946906F8018083F12C13
:100F6000E12CF80180818E151F0471F06CF0A180D6
:100F7000B280AE0CBF1C8FEF0E946906F501808322
:100F8000FFEFEF1AFF0AEDCF8FEFC81AD80A0D5FF7
:100F90001F4FDDCF7610B7CFCE0101960E94EF062E
:100FA00081E090E0B2CF61E070E0809101280E9482
:100FB000200582EA98E20C94FA0121E0FC01848584
:100FC0008F3F09F420E0822F08950895FC01678780
:100FD0000895CF93DF931F92CDB7DEB76983DC010D
:100FE000ED91FC910280F381E02D41E050E0BE01E3
:100FF0006F5F7F4F09950F90DF91CF910895CF9349
:10100000DF93EC018C859D85DC01ED91FC910288DC
:10101000F389E02D0995288D398D28503109233029
:10102000310568F42C8D3D8D1216130644F497FD9E
:1010300006C02E8D3F8D280F391F2E8F3F8FDF91D9
:10104000CF910895CF93DF93EC018CA181110EC055
:101050008C859D85DC01ED91FC910284F385E02D6A
:10106000099597FF0FC0DF91CF910895E881F9812D
:101070000084F185E02DCE010995892B49F78FEF8A
:101080009FEFF1CF488D598D9A01285031092330B7
:10109000310548F72C8D3D8D1216130634F42E8D34
:1010A0003F8D2F5F3F4F2E8F3F8F4A305105D9F62E
:1010B0002DA13EA1215031092DA33EA3232B99F64A
:1010C00029E030E0288F398FCECF2F923F924F9278
:1010D0005F926F927F928F929F92AF92BF92CF92C8
:1010E000DF92EF92FF920F931F93CF93DF93EC0168
:1010F0000E9401064B015C0184E0282E312C06E0A1
:1011000010E098E0492E512C29E0622E712C37E036
:10111000E32EF12C45E0C42ED12C888D998D0897B3
:101120000397F8F00E940106681979098A099B095A
:101130002FA138A549A55AA56217730784079507FB
:1011400080F4E881F9810084F185E02DCE010995D4
:10115000892B11F568EE73E080E090E00E94D105E4
:10116000DCCF888D998D0897039708F49EC08DEF8A
:101170009FEFDF91CF911F910F91FF90EF90DF9044
:10118000CF90BF90AF909F908F907F906F905F9027
:101190004F903F902F900895E881F9810284F38564
:1011A000E02DCE010995288D398DA90148505109AE
:1011B0004330510508F43FC02530310509F440C0E3
:1011C0002730310509F452C02430310509F06AC0D6
:1011D000A8A1B9A19C91891312C09D012F5F3F4F17
:1011E00028A339A311969C91911106C0C88ED98E5F
:1011F0001C8E1D8E1E8E1F8E8A30E9F445C0EAA11A
:10120000FBA1908189130DC09F012F5F3F4F2AA33F
:101210003BA391819111F0CF91E09CA3088F198F8E
:10122000EBCFAB58B34AD1F7EC59F34AB9F78D304D
:10123000A9F7E88EF98E0E9401064B015C016DCF83
:10124000282F082E000C330B205331092A3031058A
:1012500028F76C8D7D8D9AE0969FA001979F500D89
:101260001124240F351F2C8F3D8FC6CF8A3019F7DC
:101270008CA18823A1F0688E798E1DA21EA2888D74
:10128000998D08970397B8F2288E398E8BE893EAE8
:1012900088A399A38CE993EA8AA39BA3CCCF488E19
:1012A000598EEDCF8A3039F6EACF90E080E061CFF9
:1012B000CF93DF93EC018C859D85DC01ED91FC9152
:1012C0000488F589E02D0995188E198E1A8E1B8ECB
:1012D0008FEF9FEF8C8F9D8F1E8E1F8E8BE893EA72
:1012E00088A399A38CE993EA8AA39BA31CA21DA2BD
:1012F0001EA280E395E7A0E0B0E08FA398A7A9A77E
:10130000BAA7DF91CF91089580339CF08A3324F0FF
:101310008F3524F08B3724F481E0089581344CF02C
:101320008B35D4F393ED980F81E09230B0F380E0E9
:1013300008958B32B9F7F0CFFC018685811114C076
:10134000A185B285838594852FEF3FEFA817B90754
:1013500030F4CD010196818792872C9130E037FDE2
:1013600020E0258781E08687858508951F93CF93A8
:10137000DF93EC01162F0E949C09811306C01E8684
:1013800081E0DF91CF911F91089580E0FACFCF9354
:10139000DF93EC01CE010E949C098B303CF4893034
:1013A0004CF4882349F081E0888710C08D3011F01B
:1013B0008032C9F71E86EECF888581110AC081E090
:1013C00090E0CF5ADF4F8883998380E0DF91CF91FF
:1013D000089582E090E0F5CF0895FC018281938129
:1013E0000097C1F024813581468157812417350744
:1013F00040F0128213820190F081E02D81E080871D
:101400000895A9014F5F5F4F44835583820F931F57
:10141000FC01608308959F92AF92BF92CF92DF92BA
:10142000EF92FF920F931F93CF93DF93CDB7DEB769
:101430002597CDBFDEBF8C010E949C09D82EF801F4
:101440001686F12CE12C60EFC62EC8010E949C0983
:10145000F8011686D81609F4BAC0811117C0F80130
:10146000EF5AFF4F82E090E08083918380E02596E1
:10147000CDBFDEBFDF91CF911F910F91FF90EF9015
:10148000DF90CF90BF90AF909F9008958C3509F07A
:101490009CC0C8010E949C09882309F3E7EBF3EA8A
:1014A000853709F086C0F801168654E0952EB12CD8
:1014B000A12CC8010E949C09882389F281344CF434
:1014C0008053803148F0F801EF5AFF4F83E090E0FD
:1014D000CBCF8F7D8753F5CF44E0AA0CBB1C4A9538
:1014E000E1F7A82AF80116869A949110E2CFC50177
:1014F000985D8115944020F4750123E0F222A5CF78
:10150000C5019C5D81159440A8F4F3E0BF22B701AA
:10151000762F6627770F770F6A297B2990E080E086
:101520000196603871058105910540F4C8010E945B
:10153000ED098BCFB50190E080E0F3CF1982262F23
:101540002F7320682A8326E096958795779567956F
:101550002A95D1F76032710580F4606C6B835E016F
:1015600024E0A20EB11CF50162915F01662309F42B
:101570006CCFC8010E94ED09F6CF262F2F7320688B
:101580002B8386E0769567958A95E1F76031710542
:1015900038F4606E6C835E0185E0A80EB11CE3CF69
:1015A00060686C83CD825E01E6E0AE0EB11CDBCFDD
:1015B00032969081992309F486CF8913F9CF8181DE
:1015C000882309F480CFF8011686682FAFCF60E03A
:1015D000C8010E94ED09F80182819381892B29F4C9
:1015E000EF5AFF4F84E090E03FCF81E040CF4F9231
:1015F0005F926F927F928F929F92AF92BF92CF92A3
:10160000DF92EF92FF920F931F93CF93DF93EC0142
:101610008B0188818B32C9F18D32C1F52196FF246F
:10162000F394888190ED980F9A3018F08E3209F07B
:101630004DC160E070E0CB01FE012191A0ED8A2E4A
:10164000820E39E0381520F16A3949E974078407B8
:1016500049E1940738F5AAE0B0E09B01AC010E9493
:10166000E02C912CB12CA12C2401350140945094F4
:1016700060947094461657066806790698F0680DCF
:10168000791D8A1D9B1DEF01D7CF2196F12CC9CF63
:10169000211108C0FF20F1F161307105810550E88A
:1016A0009507A0F0E12CEAE08E2E912CA12CB12C14
:1016B00061157105F0E88F079105C0F1A50194014E
:1016C0000E94BE2CCA01B901E394F2CFF801248133
:1016D00020782A6024839B01AC0188279927DC01AC
:1016E000821B930BA40BB50B80839183A283B383DE
:1016F0008F2DDF91CF911F910F91FF90EF90DF9091
:10170000CF90BF90AF909F908F907F906F905F90A1
:101710004F900895F8012481207828602483608305
:10172000718382839383FF24F394E2CFFE01299196
:1017300030ED320F3A3010F4E394F8CF2E32F1F45A
:10174000EF012196FE012196208150EDD52ED20E7B
:1017500029E02D1598F06C3C3CEC73073CE08307C6
:10176000910580F7AAE0B0E09B01AC010E94E02C5B
:101770006D0D711D811D911DEA94E4CF20812F7D97
:10178000D0E0C0E0253409F05DC021812D32D9F5CB
:101790003296CC24C394DF01D0E0C0E02E2D0E2C75
:1017A000000C330B4AE0B42EFD01DD9040ED4D0DF1
:1017B0004A3008F042C0BC9EA001BD9E500D1124CD
:1017C000CD2DDD0CDD0BE097C40FD51FAE01420F10
:1017D000531F4732510544F3F8018481CC20D1F0E6
:1017E00040E050E060E070E8F11003C040E050E0FD
:1017F000BA0180788C60F8018483408351836283CE
:101800007383FC2C75CF2B3219F03196C12CC3CFCA
:101810003296FCCF40E050E060E87FEFF11004C06A
:1018200040E050E060E87FE780788C60F8018483D6
:10183000408351836283738376CFCC2019F0D19596
:10184000C195D1092081211141C0CE0DD11DE7FCE8
:10185000DA950E948F2B1C161D0604F5E12CC0FFA3
:101860000CC024E0E29EF0011124E053FD4F2591CD
:101870003591459154910E94F02BD595C795E394ED
:10188000209769F7F1109058F801248120782C6096
:101890002483608371838283938345CFD195C195DF
:1018A000D109E12C209771F3C0FF0CC044E0E49E05
:1018B000F0011124E056FD4F259135914591549149
:1018C0000E94F02BD595C795E394ECCFF12C10CF67
:1018D000CF92DF92EF92FF92CF93DF93CDB7DEB737
:1018E0002597CDBFDEBFFC0184818F778630B9F0AC
:1018F00028F4843078F590E080E013C08A30D9F085
:101900008C30A9F18830B9F780819181A281B381AF
:10191000811520E89207A105B10568F702C0808112
:1019200090E02596CDBFDEBFDF91CF91FF90EF9085
:10193000DF90CF90089580819181A281B381AC0125
:10194000BD0150586F4F7F4F4115510561407105E2
:1019500090F6E7CF808191811D82BE016F5F7F4F3E
:101960000E94F70ACE0101960E94680CDACFC0806F
:10197000D180E280F38020E030E040E057ECC70106
:10198000B6010E94AA2E87FDB6CF20E03EEF4FEFB2
:1019900056E4C701B6010E948A2B18160CF4ABCF8F
:1019A000C701B6010E94742ECB01BBCFCF93DF934A
:1019B000DC01EB01EC81FD818A819B810896E817AF
:1019C000F90740F481E08887F0E0E0E0CF01DF91A3
:1019D000CF9108953897EC83FD833097B9F3129631
:1019E000CD91DC911397209791F0CF018C1B9D0B2B
:1019F00023E0959587952A95E1F78D831296ED93CF
:101A0000FC9313971582148216821782DFCFED9311
:101A1000FC931197F3CFFC012581222339F0F8E0E4
:101A20002F0290011124820F931F089590E080E00F
:101A30000895FC0147A350A761A772A70895FC0170
:101A400067A170A581A592A5089521E0FC01848578
:101A50009585892B09F420E0822F0895DC011C96DE
:101A60008D919C91DC01ED91FC910688F789E02D28
:101A70000994DC011C968D919C91DC01ED91FC9107
:101A80000088F189E02D09940F931F93CF93DF9382
:101A9000CDB7DEB72697CDBFDEBFDC011C968D919A
:101AA0009C91DC01ED91FC910684F785E02D26E206
:101AB00033EA29833A83DB0112960D911D912D9112
:101AC0003C9115970B831C832D833E83BE016F5F72
:101AD0007F4F09952696CDBFDEBFDF91CF911F9135
:101AE0000F910895DC011C968D919C91DC01ED9184
:101AF000FC910680F781E02D0994DC011C968D9104
:101B00009C91DC01ED91FC910484F585E02D099414
:101B1000FC01808D918D0897039758F4248D358DA5
:101B20002F3F320731F081E0468D578D4217530722
:101B30000CF480E00895DC01ED91FC910088F189BE
:101B4000E02D23E030E0099490E080E008950C94CB
:101B5000AB2FFC0180819181009711F00C94AB2F89
:101B60000895FB0101900020E9F73197AF01461B72
:101B7000570BDC01ED91FC910280F381E02D09947B
:101B80008F929F92AF92BF92EF92FF920F931F930B
:101B9000CF93DF93CDB7DEB7A197CDBFDEBF7C017A
:101BA000FA01CB0119A2223008F42AE08E010F5D60
:101BB0001F4F822E912CB12CA12CBF01A5019401A5
:101BC0000E94BE2CF901CA016A30F4F4605DD801AC
:101BD0006E938D01232B242B252B79F790E080E049
:101BE000109721F0BD01C7010E94B10DA196CDBF94
:101BF000DEBFDF91CF911F910F91FF90EF90BF90CB
:101C0000AF909F908F900895695CE1CF8F929F92E3
:101C1000AF92BF92CF92DF92EF92FF920F931F93FA
:101C2000CF93DF937C01EB016C0182E0C80ED11CE5
:101C30004701E5E08E0E911C10E000E0F6014191B5
:101C40006F0150E070E060E02AE0CE010E94C00D1C
:101C50005C01E881F9810190F081E02D6EE2CE0116
:101C600009958A0D9B1D080F191FC814D90431F757
:101C7000F701458150E070E060E02AE0CE010E946B
:101C8000C00D800F911FDF91CF911F910F91FF9099
:101C9000EF90DF90CF90BF90AF909F908F9008957E
:101CA00068EC73EA0C94B10D0F931F93CF93DF93FD
:101CB0008C01D0E0C0E06115710519F00E94B10DF2
:101CC000EC01C8010E94500E8C0F9D1FDF91CF9137
:101CD0001F910F910895EF92FF920F931F93CF934F
:101CE000DF93EC018B017A01888D998D029744F482
:101CF0008C859D850E94500E82E090E0888F998FA0
:101D00008C859D85DC01ED91FC910280F381E02DB5
:101D1000A701B801DF91CF911F910F91FF90EF9034
:101D200009941F93CF93DF93EC01162F888D998D23
:101D3000029744F48C859D850E94500E82E090E0CD
:101D4000888F998F8C859D85DC01ED91FC910190A8
:101D5000F081E02D612FDF91CF911F9109946115E2
:101D6000710511F00C94B10D90E080E008950F938F
:101D70001F93CF93DF938B01CDE9D9E2BC018C8512
:101D80009D850E94AF0E69E973EA8C859D850E944E
:101D9000AF0EB8018C859D85DF91CF911F910F917A
:101DA0000C94540E4F925F926F927F928F929F92FB
:101DB000AF92BF92CF92DF92EF92FF920F931F9359
:101DC000CF93DF93CDB7DEB72697CDBFDEBF4C01F3
:101DD0005B018A0169018091B5299091B629089724
:101DE000039708F049C08091A9299091AA29DC01A4
:101DF000ED91FC910084F185E02D0995892B61F02E
:101E00008091A9299091AA29DC01ED91FC9102848D
:101E1000F385E02D0995E7CF1092B5291092B629E8
:101E20001092B7291092B8298FEF9FEF8093B929AC
:101E30009093BA291092BB291092BC298BE893EA9F
:101E40008093BD299093BE298CE993EA8093BF29A2
:101E50009093C0291092C1291092C2291092C329CF
:101E600080E395E7A0E0B0E08093C4299093C52972
:101E7000A093C629B093C729E090B529F090B62960
:101E80008EEF9FEFB2E0EB16F10408F0FDC08091F9
:101E9000C829882351F16091AB297091AC298091B8
:101EA000A9299091AA29DC01ED91FC914091B329D7
:101EB0005091B4296115710509F0CAC00684F785EF
:101EC000E02D26E233EA29833A834090AF295090EF
:101ED000B0296090B1297090B2294B825C826D82EA
:101EE0007E82BE016F5F7F4FB6C08091A92990911D
:101EF000AA29DC01ED91FC910688F789E02D09956E
:101F0000882349F26BEC73EA8091A9299091AA2960
:101F10000E94AF0E65E574EA8091A9299091AA29E3
:101F20000E94AF0EB4018091A9299091AA290E9424
:101F3000AF0E60ED73EA8091A9299091AA290E94C1
:101F4000540E8091C929882309F440C08091AB299F
:101F50009091AC29892BA1F16AED73EA8091A929AE
:101F60009091AA290E94AF0E6091AB297091AC2983
:101F70008091A9299091AA290E94AF0E8091B3293E
:101F80009091B42980359105A9F061EE73EA8091B2
:101F9000A9299091AA290E94AF0E4091B32950918E
:101FA000B42970E060E02AE08091A9299091AA29E3
:101FB0000E94C00D8091A9299091AA290E94500EDB
:101FC00063EE73EA81EF93EA0E94B70E8091C8290D
:101FD000882331F06CEF73EA82E094EA0E94B70E36
:101FE00081E090E08093B5299093B629A114B104C3
:101FF00029F0B5018DE094EA0E94B70E1016110683
:102000001CF56AE174EA8091A9299091AA290E949D
:10201000AF0E69E973EA8091A9299091AA290E94DB
:10202000AF0EA090A929B090AA292AE0A801012EFC
:10203000000C660B770BC5010E94C00DC5010E9404
:10204000500EC114D10471F4EF28E1F4F12C0CC04E
:102050000088F189E02D0995892B09F053CF8FEF86
:102060009FEF12C0FF24F3948091A9299091AA298F
:102070000E94500E82E090E08093B5299093B6299B
:10208000F11016C090E080E02696CDBFDEBFDF9154
:10209000CF911F910F91FF90EF90DF90CF90BF9065
:1020A000AF909F908F907F906F905F904F9008952A
:1020B000A801B6018DE999E20E946B0EE3CF0F9360
:1020C0001F93CF93DF93EC0188819981009759F09A
:1020D0002A813B812617370730F081E0DF91CF91CD
:1020E0001F910F9108958B016F5F7F4F0E943430D5
:1020F000009759F0888399830A831B832C813D8143
:10210000232B59F7FC011082E8CF80E0E7CFEF9254
:10211000FF920F931F93CF93DF93EC0118821982E4
:102120001A821B821C821D8261157105E1F08B01F0
:10213000FB0101900020E9F731977F01E61AF70AC9
:10214000B7010E945F1028813981811113C02115C8
:10215000310519F0C9010E94AB2F188219821C8227
:102160001D821A821B82DF91CF911F910F91FF90E8
:10217000EF900895EC82FD82B801C901DF91CF9103
:102180001F910F91FF90EF900C940F31CF92DF923F
:10219000EF92FF920F931F93CF93DF938C01DC019B
:1021A0009296ED91FC91E80FF91F12826C01B2E05A
:1021B000CB0ED11CC114D10449F1F60101900020CD
:1021C000E9F73197EC19FD09F1F0DC01ED90FC9095
:1021D000D7011496CD91DC91CE0FDF1FBE01C70150
:1021E0000E945F10882391F0F70120813181848162
:1021F0009581B601820F931F0E940F31D70114966B
:10220000CD93DC931597F80112A213A2D8019296F0
:102210008D919C91DF91CF911F910F91FF90EF9045
:10222000DF90CF9008951F93CF93DF93EC01162F8B
:102230008AA19BA101968097B8F48AA19BA19C01D9
:102240002F5F3F4F2AA33BA38C0F9D1FFC011283DE
:1022500021E030E08CA19DA1820F931F8CA39DA350
:10226000DF91CF911F910895CE010E94C610892B56
:1022700021F330E020E0EECFEF92FF920F931F9317
:10228000CF93DF93EC017B0162E20E94131187017F
:10229000F80161918F01662391F0E7EBF3EAF28098
:1022A000FF2049F0329681816813F9CF6CE5CE01A9
:1022B0000E9413116F2DCE010E941311E9CF62E22B
:1022C000CE01DF91CF911F910F91FF90EF900C9471
:1022D0001311BF92CF92DF92EF92FF920F931F9351
:1022E000CF93DF93EC016A018B017B01E40EF51EB5
:1022F000E016F106D1F0F801B1908F018AA19BA1FF
:102300000196809760F48AA19BA19C012F5F3F4FAB
:102310002AA33BA38C0F9D1FFC01B282E9CFCE0103
:102320000E94C610892B79F3E3CF4CA15DA14C0D1F
:102330005D1D4CA35DA3DF91CF911F910F91FF9085
:10234000EF90DF90CF90BF9008958F929F92AF92C1
:10235000BF92CF92DF92EF92FF920F931F93CF9392
:10236000DF93CDB7DEB76697CDBFDEBF6C018E01C0
:10237000095E1F4F78018AE0882E912CA12CB12C88
:10238000CB01BA01A50194010E94BE2C942F852F88
:10239000605DF80162938F01A901692F782F4115C3
:1023A00051056105710561F7A7014E1B5F0BBF0168
:1023B000C6010E9469116696CDBFDEBFDF91CF9145
:1023C0001F910F91FF90EF90DF90CF90BF90AF9053
:1023D0009F908F900895FB0101900020E9F73197BD
:1023E000AF01461B570B0C9469112F923F924F92ED
:1023F0005F926F927F928F929F92AF92BF92CF9295
:10240000DF92EF92FF920F931F93CF93DF93CDB79D
:10241000DEB76C97CDBFDEBF8C011B01DC011496CB
:102420008C9114978F77863009F471C278F48230DA
:10243000B0F0843008F049C212964D915C91139728
:102440006D917C91C1010E94691126C28C3069F1A5
:1024500060F4883009F456C28A3009F43CC269E25B
:1024600074EAC1010E94EB11E5C1803209F4ECC1AC
:102470008034A9F76BE5C1010E941311F8010081B6
:1024800011810115110509F4DAC1B101C8010E94D9
:10249000F511C8010E940B0D8C01892B09F4CFC1E5
:1024A0006CE2C1010E941311ECCFF801C080D18011
:1024B000E280F380A7019601C701B6010E948A2B32
:1024C0008111CDCF20E030E0A901C701B6010E9403
:1024D0008A2B882379F0A7019601C701B6010E94D3
:1024E000962D9B01AC01C701B6010E948A2B88235F
:1024F00009F4B5CF20E030E0A901C701B6010E9480
:102500008A2B87FF08C06DE2C1010E941311F7FA00
:10251000F094F7F8F09420E836E948E15BE4C7016D
:10252000B6010E94AA2E87FD81C074E1A72EB12CAE
:1025300000E210E01F8A188EF501E053FD4F25914F
:10254000359145915491C701B6010E94AA2E87FD8D
:1025500013C0F501E056FD4F2591359145915491F9
:10256000C701B6010E94F02B6B017C012F89388DC9
:10257000200F311F2F8B388F1595079534E0A31A44
:10258000B1088CEFA8168FEFB806B1F655245A940F
:1025900020E030E0A901C701B6010E94AA2E18165A
:1025A0000CF04BC02CEA35EC47E257E3C701B6010B
:1025B0000E948A2B18160CF440C0A52DB4E0AB0283
:1025C000C0011124912C812CFC01E854FD4F3F01E6
:1025D0009C0120533D4F59013FEF531671F1F30118
:1025E000E80DF91D6591759185919491A70196016A
:1025F0000E94AA2E18169CF4F501E80DF91D2591EC
:10260000359145915491C701B6010E94F02B6B01A1
:102610007C018F89988D801B910B8F8B988F1595DE
:1026200007955A9494E0891A9108D6CF00E210E0F9
:1026300055E0552E1F8A188EABCFC701B6010E94F8
:102640007B2E4B015C012B013C0106E080E492E40F
:10265000AFE0B0E0898F9A8FAB8FBC8F102F015005
:102660009AE04916510461047104C8F0698D7A8DAD
:102670008B8D9C8D2AE030E040E050E00E94BE2C23
:10268000298F3A8F4B8F5C8FC301B2012AE030E073
:1026900040E050E00E94BE2C29013A01DFCFC50185
:1026A000B4010E948F2B9B01AC01C701B6010E94AF
:1026B000952D6B017C01698D7A8D8B8D9C8D0E948F
:1026C0008F2B9B01AC01C701B6010E94F02B2B019F
:1026D0003C010E947B2E6B017C010E948F2B9B0191
:1026E000AC01C301B2010E94952D9B01AC010E9477
:1026F000962D0E947B2EC60ED71EE81EF91E898DD0
:102700009A8DAB8DBC8DC816D906EA06FB06D8F0AB
:102710009FEF891A990AA90AB90AAF89B88DAB2B1C
:1027200039F1BAE08B169104A104B10408F1EF89E4
:10273000F88D3196EF8BF88FC12CD12C7601812C3E
:10274000912C540183942AE0422E512C612C712C3F
:10275000C701B601A30192010E94BE2C672B682B12
:10276000692B51F4111644F469017A011150F0CF2C
:10277000C12CD12C7601E7CFB501A401C1010E9483
:10278000A511112371F14E01F1E18F0E911C012F62
:1027900054019AE0492E512C612C712C015068F0A3
:1027A000C701B601A30192010E94BE2C605DD40155
:1027B0006E934D0169017A01F1CF812F90E0BC0148
:1027C00060957095F501E81BF90B31978EE28083D7
:1027D00044275527461B570B6A0D7B1DC1010E94DC
:1027E0006911EF89F88DEF2B29F165E6C1010E948F
:1027F00013110F89188D17FF07C06DE2C1010E94E8
:102800001311119501951109FE0177969F018AE038
:10281000E82EF12CC801B7010E942B2D805D829318
:102820008B01672BB9F7A9014E1B5F0BBF01C101DB
:102830000E946911D10194968D919C9130C06DE5F3
:10284000C1010E941311F6CF6BE7C1010E94131161
:10285000F8010081118101151105D1F0D8011696FA
:102860006D917C91C1010E943C116AE3C1010E94FB
:102870001311B101C8010E94F511C8010E940B0D8E
:102880008C01892B29F06CE2C1010E941311E3CF66
:102890006DE7C1010E941311F10184A195A16C960D
:1028A000CDBFDEBFDF91CF911F910F91FF90EF90D1
:1028B000DF90CF90BF90AF909F908F907F906F9060
:1028C0005F904F903F902F9008956D917C91C10142
:1028D0000E943C11E1CFCD90DD90ED90FC90B701CE
:1028E000A601F7FE0BC06DE2C1010E94131144273F
:1028F0005527BA014C195D096E097F09C1010E9473
:10290000A511CACF4D915D916D917C91F7CF8C91BE
:102910006EE274EA811102C063E374EAC1010E94AD
:10292000EB11BACFCF93DF93CDB7DEB7A497CDBF6E
:10293000DEBF24E2FB01DE01119601900D922A9583
:10294000E1F724E2FE013196DC0101900D922A9517
:10295000E1F7FC0114A215A2CE0101960E94C61057
:10296000A496CDBFDEBFDF91CF910895CF92DF92C5
:10297000EF92FF920F93FC01C12CB9E0DB2EBDE377
:10298000EB2EF12CC082D182E282F3821482158276
:1029900081E090E086839783C0900328D09004283C
:1029A000E0900528F0900628F694E794D794C79411
:1029B00090E04C155D056E057F0540F4F694E794B4
:1029C000D794C7949F5F9630A1F797E00460018782
:1029D000892F8095A82FA170B0E084E0AA0FBB1FBB
:1029E0008A95E1F791629A2B80E0232B09F480E429
:1029F000982B90870F91FF90EF90DF90CF900895E4
:102A00000F931F93CF93DF93CDB7DEB72A97CDBF38
:102A1000DEBF8C01FC01878181110CC010861186FC
:102A2000128613861486158616861786108A118AD2
:102A300081E087838091E305F8019681892B80935B
:102A4000E30561E070E083810E94250561E070E0AC
:102A5000F80184810E9425058091C10884608093DB
:102A6000C1088091C00881628093C0084091E42829
:102A70005091E5286091E6287091E7280091E828B8
:102A80002091EA283091EB28CE0101960E94B614DD
:102A900099858A859093C0088093C1082A96CDBFF6
:102AA000DEBFDF91CF911F910F910895CF9383E205
:102AB0008093012884E280930228C1E0C0932228F9
:102AC0008DE18093002861E070E083E20E94580469
:102AD00070E060E084E20E94250561E070E08DE135
:102AE0000E94250561E070E08CE10E94580461E0DD
:102AF00070E08CE10E94B80461E070E083E20E9423
:102B0000200561E070E08DE10E9420056AE070E040
:102B100080E090E00E94D10570E060E08DE10E94CD
:102B200020056EEE72E080E090E00E94D10570E03A
:102B300060E08CE10E94B80470E060E08CE10E94EB
:102B4000580482EA98E20E940015C093A128CF9110
:102B500008955F926F927F928F929F92AF92BF92F1
:102B6000CF92DF92EF92FF920F931F93CF93DF9359
:102B7000CDB7DEB76297CDBFDEBF3C010B871C87A8
:102B80002D873E87042F4F87588B698B7A8B298935
:102B90003A894B855C856D857E85CE0101960E94C4
:102BA000B61459841A85D30118968C91882319F08C
:102BB00081FF18C0F8945092C0081093C108629623
:102BC000CDBFDEBFDF91CF911F910F91FF90EF90AE
:102BD000DF90CF90BF90AF909F908F907F906F903D
:102BE0005F90089580FFE7CFF30182849384A484EB
:102BF000B584C12CD12C7601B0E09401A501B601B9
:102C0000C701A0E00E94832DA9F1217030E040E0CF
:102C100050E060E070E080E090E00E94832DE9F0F9
:102C200090E080E0B03370F48B2F86958695869582
:102C3000F0E28F9FC0011124805F9B4F2B2F2770E4
:102C4000820F911DFC01408193012B0F311DF90171
:102C5000428BFC012081287F20839401A501B601CD
:102C6000C70101E00E94682D49015A016B017C01F6
:102C7000BF5FC3CFD3011E968D909D90AD90BC9049
:102C80005197C12CD12C7601B0E29401A501B60177
:102C9000C701A0E00E94832D09F48DCF217030E0A0
:102CA00040E050E060E070E080E090E00E94832D22
:102CB000E9F090E080E0B03370F48B2F8695869534
:102CC0008695E0E28E9FC0011124805F9B4F2B2FE1
:102CD0002770820F911DFC01408193012B0F311D44
:102CE000F901428BFC012081287F20839401A501FA
:102CF000B601C70101E00E94682D49015A016B012C
:102D00007C01BF5FC2CFCF92DF92EF92FF920F9311
:102D10001F93CF93DF93CDB7DEB72897CDBFDEBF2C
:102D200080E0082F1D821E8281E0682F12E12AE7D1
:102D300030E040E05E8170E082EA98E20E94A915EE
:102D400070E060E0809101280E9420050E94010649
:102D50006B017C01809102288932B8F00E94010643
:102D60006C197D098E099F096530710581059105F2
:102D700088F32896CDBFDEBFDF91CF911F910F91D1
:102D8000FF90EF90DF90CF9008950E94FB04019791
:102D900081F3E4CFCF92DF92EF92FF920F931F93D4
:102DA000CF93DF93CDB7DEB72897CDBFDEBF6C01E1
:102DB000162FF42EE52E2F83088719821A821B8284
:102DC0001C828091A128811102C00E94561580E0CA
:102DD0000E943C060E94831665E08DE20E94770601
:102DE00040E0612FC6010E94BF0640E064E0CE01D2
:102DF00001960E94BF0682E00E9469068E2D0E9405
:102E000069068F2D0E94690640E061E0CE010796B9
:102E10000E94BF0641E061E0CE0108960E94BF0615
:102E2000012F10E0C8014196837099270F5F1F4F53
:102E3000892B19F00E94F906F5CF0E94D30781E093
:102E40009885943009F080E00E943C060E94831629
:102E50001E821D82AE014B5F5F4FBE016A5F7F4FD6
:102E60008DE20E9420070E94D3072896CDBFDEBFC7
:102E7000DF91CF911F910F91FF90EF90DF90CF9056
:102E80000895CF92DF92EF92FF920F931F93CF930B
:102E9000DF9300D000D0CDB7DEB77C0186E08E9DF9
:102EA00080018F9D100D11240053164DF80184816F
:102EB0009581892B09F08CC080819181892B59F4EF
:102EC00080E490E00E940F2FF80182839383808337
:102ED00091831482158280E490E089839A8386E04E
:102EE0008E9DF0018F9DF00D1124E053F64DC080B2
:102EF000D180EC828CE10E94FB04892B09F468C02C
:102F00008091A128811102C00E94561580E00E9484
:102F10003C060E94831662E085E40E94770640E04A
:102F200061E070E0CE0104960E948E0641E062E00E
:102F300070E0CE0101960E948E060E94F9060E9462
:102F4000D30780E00E943C060E9483161B820E94E9
:102F50000807892B49F1CE0103960E94EF068B8169
:102F6000853C11F50E94F9068823D1F08FEF0E946D
:102F70006906182F8FEF0E946906912F89839A8323
:102F8000860129813A81C8018C199D09821793070E
:102F900038F48FEF0E946906F80181938F01F1CF19
:102FA000CE0103960E94EF060E94D30789819A8181
:102FB000009771F026E02E9DF0012F9DF00D112459
:102FC000E053F64D208131812283338384839583BE
:102FD00086E08E9DF0018F9DF00D1124E053F64D9B
:102FE000848195812496CDBFDEBFDF91CF911F9163
:102FF0000F91FF90EF90DF90CF900895CF92DF92E6
:10300000EF92FF920F931F93CF93DF937C016B019D
:103010008A010E9441170097F9F0801791070CF47C
:103020008C0186E08E9DE0018F9DD00D1124C05350
:10303000D64D6A817B81A801C6010E94FD308A813C
:103040009B81800F911F8A839B838C819D81801B34
:10305000910B8C839D83C801DF91CF911F910F91BC
:10306000FF90EF90DF90CF900895FC01848590E071
:103070000C94FE170F931F93CF93DF931F92CDB73E
:10308000DEB78C01DC01ED91FC910084F185E02D2F
:103090000995892B91F0F801848541E050E0BE014B
:1030A0006F5F7F4F90E00E94FE17898190E00F9044
:1030B000DF91CF911F910F9108958FEF9FEFF7CF81
:1030C000CF93DF93FC01C485D0E0CE010E9441176D
:1030D000892B81F086E08C9FF0018D9FF00D1124EB
:1030E000E053F64D0280F381E02D808190E0DF9186
:1030F000CF9108958FEF9FEFFACFFC0184858F3F2A
:1031000019F090E00C94411790E080E00895CF937F
:10311000DF93CDB7DEB72797CDBFDEBF8F83198290
:103120001A821B821C826A837B834D835E8380911B
:10313000A128811102C00E94561580E00E943C0621
:103140000E94831661E08AE30E94770641E061E015
:10315000CE0107960E94BF060E94F9060E94F9065A
:103160000E94D30780E00E943C060E948316AE01B5
:103170004F5F5F4F62E08AE30E946A070E94D307B5
:103180002796CDBFDEBFDF91CF910895CF93DF9318
:10319000CDB7DEB72697CDBFDEBF19821A821B825C
:1031A0001C821D821E82AE014B5F5F4FBE016F5FAE
:1031B0007F4FFC0184850E9487188D8190E0982FB5
:1031C00088272E81820F911D2696CDBFDEBFDF910D
:1031D000CF9108950F931F93CF93DF93CDB7DEB7B1
:1031E0002697CDBFDEBF8C01FB0119821A821B829C
:1031F0001C821D821E82AE014B5F5F4FBE016F5F5E
:103200007F4F84850E94871886E293EAF8018083C5
:10321000918389819A81AB81BC8182839383A483CA
:10322000B583C8012696CDBFDEBFDF91CF911F9138
:103230000F910895CF93DF9300D0CDB7DEB7809183
:10324000A128811102C00E94561580E00E943C0610
:103250000E94831660E08FE30E9477060E94D307E6
:1032600080E00E943C060E9483168FEF89831A82B9
:10327000AE014E5F5F4FBE016F5F7F4F8FE30E94D5
:1032800020070E94D30789810F900F90DF91CF9183
:103290000895CF92DF92EF92FF920F93CF93DF9337
:1032A000EC017B016A018C858F3F39F0E881F9815F
:1032B0000488F589E02DCE0109950E941A198C87A2
:1032C0008F3F09F442C0F70101900020E9F73197E0
:1032D000BF016E197F0904E0282FA601C7010E94D3
:1032E000CA160E9401066B017C01E881F9810688FB
:1032F000F789E02DCE010995811112C00E940106C7
:103300006C197D098E099F0960317742810591050D
:1033100038F461E070E080E090E00E94D105E5CFF4
:10332000E881F9810688F789E02DCE01099521E031
:1033300090E0811101C020E0822FDF91CF910F91A9
:10334000FF90EF90DF90CF90089569E374EA8CEEE0
:1033500098E20E94540E80E090E0EFCFCF92DF928F
:10336000EF92FF920F93CF93DF93EC017B016A0101
:103370008C858F3F39F0E881F9810488F589E02D4B
:10338000CE0109950E941A198C878F3F09F442C01B
:10339000F70101900020E9F73197BF016E197F090D
:1033A00002E0282FA601C7010E94CA160E9401064A
:1033B0006B017C01E881F9810688F789E02DCE0157
:1033C0000995811112C00E9401066C197D098E09B0
:1033D0009F09603177428105910538F461E070E022
:1033E00080E090E00E94D105E5CFE881F981068870
:1033F000F789E02DCE01099521E090E0811101C00F
:1034000020E0822FDF91CF910F91FF90EF90DF901E
:10341000CF90089569E374EA8CEE98E20E94540E0E
:1034200080E090E0EFCFCF92DF92EF92FF920F9388
:103430001F93CF93DF9300D000D0CDB7DEB78C833E
:103440007B018A018091A128811102C00E9456153A
:1034500080E00E943C060E94831662E084E40E94A1
:10346000770640E061E070E0CE0104960E948E068F
:1034700041E0B801C7010E948E06075F1F4FC801D7
:1034800083709927892B29F00E94F9060F5F1F4F3F
:10349000F6CF0E94D30780E00E943C060E9483166C
:1034A00019821A821B820E940807892B31F1CE01F2
:1034B00003960E94EF068B81843CF9F40E94F90682
:1034C0008823B9F08FEF0E9469069E012F5F3F4F5E
:1034D00069018901E82EF12CC8018C199D098E150E
:1034E0009F053CF48FEF0E946906F80181938F01DC
:1034F000F3CFCE0103960E94EF060E94D307898185
:103500009A812496CDBFDEBFDF91CF911F910F919D
:10351000FF90EF90DF90CF900895CF92DF92EF92DF
:10352000FF920F931F93CF93DF93222379F06A01C9
:103530007B018C01C5E0D0E0A601B701F8018485CC
:103540000E94131A009721F42197B1F790E080E0D0
:10355000DF91CF911F910F91FF90EF90DF90CF906F
:103560000895CF93DF9300D01F92CDB7DEB78B8342
:103570008091A128811102C00E94561580E00E940E
:103580003C060E94831661E08FE20E94770641E0CC
:1035900061E0CE0103960E94BF060E94F9060E94D8
:1035A000F9060E94D30780E00E943C060E94831621
:1035B00019821A82AE014E5F5F4FBE016F5F7F4F6F
:1035C0008FE20E9420070E94D30789812396CDBFF6
:1035D000DEBFDF91CF9108950F931F93CF93DF93B9
:1035E000FC0124852F3F09F1EC010190F081E02DD1
:1035F0000084F185E02D0995892B31F081E0DF9180
:10360000CF911F910F9108958C858F3F81F40C8588
:10361000F6E00F9F800111240053164DF8018081C0
:103620009181009779F48FEF8C8780E0E8CF0E943A
:10363000B11A843060F39BEF980F933040F38A30D7
:10364000E9F6E5CF0E94AB2FF801128213821082B7
:10365000118214821582E7CFCF93DF9300D01F929F
:10366000CDB7DEB78B838091A128811102C00E9463
:10367000561580E00E943C060E94831661E08EE2AF
:103680000E94770641E061E0CE0103960E94BF06EA
:103690000E94F9060E94F9060E94D30780E00E946A
:1036A0003C060E94831619821A82AE014E5F5F4F5C
:1036B000BE016F5F7F4F8EE20E9420070E94D307FA
:1036C0002396CDBFDEBFDF91CF9108950F931F9357
:1036D000CF93DF93FC0184858F3F69F18F010E94B6
:1036E0002C1BC2E3D0E0F80184858F3F69F00E9473
:1036F000B11A882349F0219739F064E670E080E040
:1037000090E00E94D105EFCFF801C485F6E0CF9F8D
:10371000E0011124C053D64D88819981009741F072
:103720000E94AB2F1A821B82188219821C821D8272
:103730008FEFF8018487DF91CF911F910F9108954A
:10374000FF920F931F93CF93DF93CDB7DEB72897E8
:10375000CDBFDEBF6B837C838D839E83142FF52EBC
:103760002F8308878091A128811102C00E945615DD
:1037700080E00E943C060E94831664E08DE20E9475
:10378000770640E064E0CE0103960E94BF0682E027
:103790000E9469068F2D0E946906812F0E9469068A
:1037A00040E061E0CE0107960E94BF0641E061E083
:1037B000CE0108960E94BF060E94D30780E00E94B7
:1037C0003C060E94831619821A82AE014E5F5F4F3B
:1037D000BE016F5F7F4F8DE20E9420070E94D307DA
:1037E0002896CDBFDEBFDF91CF911F910F91FF9043
:1037F0000895AF92BF92CF92DF92EF92FF920F9314
:10380000CF93DF93EC017B015A018C858F3F39F018
:10381000E881F9810488F589E02DCE0109950E949F
:103820001A19282F8C878F3F09F43FC0F701628156
:1038300073818481958104E0A5010E94A01B0E94F0
:1038400001066B017C01E881F9810688F789E02D8A
:10385000CE010995811112C00E9401066C197D09E3
:103860008E099F09603177428105910538F461E046
:1038700070E080E090E00E94D105E5CFE881F98119
:103880000688F789E02DCE01099521E090E08111AD
:1038900001C020E0822FDF91CF910F91FF90EF9038
:1038A000DF90CF90BF90AF90089569E374EA8CEEFB
:1038B00098E20E94540E80E090E0EDCFAF92BF926C
:1038C000CF92DF92EF92FF920F93CF93DF93EC01B1
:1038D0007B015A018C858F3F39F0E881F98104889A
:1038E000F589E02DCE0109950E941A19282F8C87A1
:1038F0008F3F09F43FC0F701628173818481958114
:1039000002E0A5010E94A01B0E9401066B017C0140
:10391000E881F9810688F789E02DCE0109958111AA
:1039200012C00E9401066C197D098E099F09603141
:1039300077428105910538F461E070E080E090E025
:103940000E94D105E5CFE881F9810688F789E02D4D
:10395000CE01099521E090E0811101C020E0822F85
:10396000DF91CF910F91FF90EF90DF90CF90BF90BC
:10397000AF90089569E374EA8CEE98E20E94540EC9
:1039800080E090E0EDCFAF92BF92CF92DF92EF92C6
:10399000FF920F93CF93DF93EC017B015A018C854B
:1039A0008F3F39F0E881F9810488F589E02DCE0157
:1039B00009950E941A19282F8C878F3F09F43FC060
:1039C000F701628173818481958100E0A5010E94E5
:1039D000A01B0E9401066B017C01E881F981068829
:1039E000F789E02DCE010995811112C00E940106D0
:1039F0006C197D098E099F09603177428105910517
:103A000038F461E070E080E090E00E94D105E5CFFD
:103A1000E881F9810688F789E02DCE01099521E03A
:103A200090E0811101C020E0822FDF91CF910F91B2
:103A3000FF90EF90DF90CF90BF90AF90089569E333
:103A400074EA8CEE98E20E94540E80E090E0EDCF94
:103A5000CF92DF92EF92FF920F931F93CF93DF935A
:103A600000D01F92CDB7DEB76C018B017A01DC016B
:103A70001C968C918F3FA1F481E090E0F601828347
:103A8000938310E000E0C8012396CDBFDEBFDF9135
:103A9000CF911F910F91FF90EF90DF90CF900895FD
:103AA0004115510549F30E94131A009709F06AC0A5
:103AB000D6011F968C911F9781110CC0F601848549
:103AC0000E942C1B81E090E0D60112968D939C936E
:103AD0001397D7CFED91FC9102A0F3A1E02D21E047
:103AE000A701B801C60109958C01892B39F3F601AC
:103AF00084858B831A821982F12CE12C8091A12874
:103B0000811102C00E94561580E00E943C060E946E
:103B1000831661E08AE20E94770641E061E0CE010F
:103B200003960E94BF060E94F9060E94F9060E94B1
:103B3000D30780E00E943C060E948316AE014F5FCF
:103B40005F4FBE016E5F7F4F8AE20E9420070E9496
:103B5000D3078A81811118C0FFEFEF1AFF0A64E6CC
:103B600070E080E090E00E94D1058A81811104C05C
:103B700089E1E816F10410F2A9E1EA16F10409F46A
:103B80007BCF81CF8C01B3CFF12CE12CEECF8F9284
:103B90009F92AF92BF92CF92DF92EF92FF920F93DC
:103BA0001F93CF93DF93CDB7DEB72B97CDBFDEBF8B
:103BB0007C015B016A018091A128811102C00E94F1
:103BC000561580E00E943C060E94831661E084E363
:103BD0000E947706F50101900020E9F73197BF01B7
:103BE0006A197B0941E0C5010E94BF06D5010D900D
:103BF0000020E9F78D010A191B090C5F1F4FC8014E
:103C000083709927892B29F00E94F9060F5F1F4FB7
:103C1000F6CF0E94D30780E00E943C060E948316E4
:103C20001F821982AE014F5F5F4FBE01695F7F4FF8
:103C300084E30E942007182F0E94D307112319F054
:103C40008F81813019F090E080E056C08FEF8B8338
:103C50008C838D838E838091A128811102C00E9464
:103C6000561580E00E943C060E94831660E085E3C2
:103C70000E9477060E94D30780E00E943C060E94C3
:103C800083161B86AE01455F5F4FBE01695F7F4FA4
:103C900085E30E9420078C01812C912C5401892BF3
:103CA00091F08F809884A984BA8491E080E04B8160
:103CB0005C816D817E81481559056A057B0509F493
:103CC00090E0092F182F0E94D307012B09F4BBCFD6
:103CD000D701ED91FC910684F785E02D86E293EA09
:103CE00089839A838B829C82AD82BE82A601BE01AB
:103CF0006F5F7F4FC70109952B96CDBFDEBFDF9168
:103D0000CF911F910F91FF90EF90DF90CF90BF90D8
:103D1000AF909F908F900895EF92FF920F931F9313
:103D2000CF93DF9300D0CDB7DEB78C01DC0158967E
:103D30008D919C910997F9F4F80184859585DC01B2
:103D4000ED91FC910084F185E02D0995892B99F086
:103D5000F80184859585DC01ED91FC910284F38561
:103D6000E02D0995F82EBAE08B133CC08AE090E074
:103D7000F801808F918FD80158968D919C91599719
:103D80000A9761F495968D919C919697892B31F4C1
:103D900089E090E058968D939C935997F801808D17
:103DA000918D099709F444C084859585DC01ED91D6
:103DB000FC910084F185E02D0995F801208D318D6D
:103DC0002A30310531F425A136A1281739070CF422
:103DD000C9010F900F90DF91CF911F910F91FF902C
:103DE000EF900895FDE08F1709F4A6CF082E000C80
:103DF000990B0E94F130892B09F49ECF19821A8207
:103E0000F982D8019596ED90FC9084E0EE0CFF1CB1
:103E10008A95E1F740E150E070E060E0CE01019664
:103E20000E94672A6E0D7F1DF80165A376A384CFDB
:103E300090E080E0CECF5F926F927F928F929F92C0
:103E4000AF92BF92CF92DF92EF92FF920F931F93A8
:103E5000CF93DF93D0E0C0E082E0682E712C9AE02F
:103E6000592E23E0E22EF12C34E0C32ED12C1092F7
:103E7000B7291092B8296092B5297092B6290E948C
:103E800001064B015C010DE414EACA30D10509F4C6
:103E90007DC00E940106681979098A099B09209151
:103EA000C4293091C5294091C6295091C72962176C
:103EB00073078407950708F075C08DE999E20E94A1
:103EC0008C1E892B09F447C08DE999E20E942208D3
:103ED000EC01CF3FDC07C9F28091B5299091B6295A
:103EE0008230910539F00397D9F00E9401064B0109
:103EF0005C01CBCFF80180818A3231F0082E000CB2
:103F0000990BC817D90781F5C8010196F8012181DD
:103F1000211104C0E092B529F092B6298C01E5CFB9
:103F20009E01205331092A30310528F0C092B5296D
:103F3000D092B629DACF4091B7295091B829549E32
:103F4000C001559E900D1124820F931F8093B729B5
:103F50009093B829CACF68EE73E080E090E00E94A9
:103F6000D10593CF2A9789F58CEF9FEFDF91CF9101
:103F70001F910F91FF90EF90DF90CF90BF90AF9087
:103F80009F908F907F906F905F9008958091B72958
:103F90009091B829883C91052CF48536910511F053
:103FA000D0E0C0E08091B5299091B6290497D1F670
:103FB0008091B7299091B829883C910524F48536E1
:103FC000910509F054CF2A9789F28DEF9FEFCECF5C
:103FD000CF92DF92EF92FF920F931F93CF93DF93D5
:103FE0006C01FC01E080F180F70102811381C08146
:103FF000D181C017D10778F40115110541F0209740
:1040000031F0BE01C8010E940631892B69F0899107
:104010008111FDCFEECFF60184819581800F911F34
:10402000F70182839383E801CE01DF91CF911F9145
:104030000F91FF90EF90DF90CF9008950F931F9313
:10404000CF93DF938B01EC01892BA1F06E817F81EF
:104050006017710779F00115110541F061157105BF
:1040600029F0C8010E940631892B21F0CE010E945F
:104070000B0DE9CFCE01DF91CF911F910F910895E4
:104080009F92AF92BF92CF92DF92EF92FF920F93E7
:104090001F93CF93DF93EC018B01E42E0E94C7099D
:1040A000F82E81110EC0F12C8F2DDF91CF911F9131
:1040B0000F91FF90EF90DF90CF90BF90AF909F90C7
:1040C0000895CE010E949C09873209F415C114F5A8
:1040D000823209F411C1CE010E949C09B82E6E01F2
:1040E000F1E1CF0ED11CE12C9C2CAD2C8B2D0E942C
:1040F0008409882309F422C18FE3E81609F41EC15C
:104100001E86E394F601B1926F01CE010E949C09D4
:10411000B82EECCF8B3509F455C08B37E1F6F8019A
:10412000848180788062848310821182128213825B
:10413000EE2009F452C01E86CE010E94C7098823D2
:1041400009F4B1CF6DE7CE010E94B6098111ACCF61
:10415000EA94E881F981828193818A839B838481B7
:10416000958122813381821B930B8E839F831C82D6
:104170001D82CE010E949C09873209F46EC08232F2
:1041800009F46BC0CE010E949C09D82E0E948409BC
:10419000882309F45DC01E866D2DCE010E94ED09B5
:1041A000CE010E949C09D82E0E9484098111F3CF70
:1041B00060E0CE010E94ED098A819B81892B09F084
:1041C00052C027C0F8018481807880648483108283
:1041D000118212821382E11007C0CF5ADF4F85E0AF
:1041E00090E0888399835FCF1E86CE010E94C70925
:1041F000882309F458CF6DE5CE010E94B6098111DC
:1042000053CFEA946F857889C8010E94D60C009735
:1042100029F4CF5ADF4F84E090E0E3CF4E2DBC016C
:10422000CE010E944020882309F43DCFCE010E9498
:10423000C709882309F437CF6DE5CE010E94B6097E
:10424000811132CF6CE2CE010E94B6098111DACF22
:10425000CF5ADF4F83E090E0C4CFCE010E940B0A1B
:10426000882309F420CFCE010E94C709882309F4CE
:104270001ACF6AE3CE010E94B609882349F36A8106
:104280007B81F801808191810E941E20BC01892BD5
:1042900099F4CE010E94E81F6C016F857889C801EE
:1042A0000E94D60CFC01892B09F4B3CF848180686D
:1042B0008483C682D782BF014E2DCE010E9440204A
:1042C000882309F4F0CECE010E94C709882309F49F
:1042D000EACE6DE7CE010E94B6098111E5CE6CE20F
:1042E000CE010E94B609882309F4B2CFCE010E9404
:1042F000C70981112ECFD7CEE881F98182819381C0
:104300008A839B838481958122813381821B930BD5
:104310008E839F831C821D82CE010E940B0AF82E81
:10432000882309F4C0CECE010E94E81FF801248141
:1043300020782560248380839183B6CEFE01EE0D24
:10434000F11D118A8989843781F4F801848180788C
:104350008660848381E08083F4E0EF1609F4A4CEC4
:10436000CF5ADF4F82E090E03CCF863641F4F8012F
:1043700084818078866084831082F5E0EECF8E366B
:1043800021F484E0E812ECCF8FCEB801892D9A2D6C
:104390000E94F70A882309F45BCF86CEEF92FF9242
:1043A0000F931F93CF93DF93EC018C81982F9F770E
:1043B00039F4807880628C83188219821A821B8279
:1043C0008C8185FF1EC061157105D9F07A018B01C2
:1043D000888199810E941E20009761F4B701CE0167
:1043E0000E94D60C009731F0FC0124812F772483A2
:1043F00006831783DF91CF911F910F91FF90EF906C
:10440000089590E080E0F6CF8F929F92AF92BF9296
:10441000CF92DF92EF92FF920F931F93CF93DF9390
:10442000CDB7DEB7C35ED109CDBFDEBF82EC90E071
:104430008C0F9D1F0E96CE53DF4F88839983C25CED
:10444000D040CC53DF4F88839983C45CD04082EC4A
:1044500090E08C0F9D1F4696CA53DF4F8883998347
:10446000C65CD040C853DF4F88839983C85CD04076
:10447000C653DF4F1882CA5CD040C153DF4F188249
:10448000CF5CD040AE014E535F4F67E574EACA017E
:1044900009960E94CE21FC01892B61F094819078CD
:1044A0009A60948381E090E0A0E0B0E08083918303
:1044B000A283B3837E014EEDE40EF11C67EC73EA38
:1044C000C7010E948710C256DF4FE882F982CE5999
:1044D000D040C054DF4F18821982C05CD04084E2C3
:1044E000FE01E256FF4FDE01A658BF4F01900D922C
:1044F0008A95E1F784E2FE01E658FF4FDE01AC5AEF
:10450000BF4F01900D928A95E1F7BE016C5A7F4F23
:10451000CE0101960E949214CE018C5A9F4F0E94A8
:10452000C610BE016F5F7F4F82EC90E08C0F9D1F25
:1045300009960E94F511CE0101960E94C610CE0187
:1045400086589F4F0E94C610CE0182569F4F0E94F0
:10455000C61081E090E08093B5299093B62963E678
:1045600074EACE018C5A9F4F0E94871064E774EA68
:10457000CE0101960E948710F7012081318144818C
:10458000558166966EAD7FAD669789819A810E944E
:10459000D20ECE0101960E94A90DCE018C5A9F4FDA
:1045A0000E94A90D8091B5299091B62902970CF42B
:1045B000C7C00E941B1F883C910509F0C1C084E55B
:1045C00090E08C0F9D1F0E9666968EAF9FAF6697FC
:1045D00068968EAF9FAF689784E590E08C0F9D1F23
:1045E00086966A968EAF9FAF6A976C968EAF9FAF96
:1045F0006C976D961FAE6D97A2961FAEA297809195
:10460000B5299091B6290897039720F08DE999E292
:104610000E9465080091B9291091BA2967EC73EAE4
:10462000CE0101960E948710101611060CF0C9C029
:10463000B801CE0101960E945F108111C2C0C8521C
:10464000DF4F18821982C85DD040C652DF4F1882F2
:104650001982CA5DD040C452DF4F18821982CC5DE6
:10466000D040CE0101960E94A90DC852DF4F28818B
:104670003981C85DD040C452DF4F88819981CC5DBB
:10468000D040820F931F66964EAD5FAD66976896D9
:104690004EAF5FAF68976C964EAD5FAD6C976A9604
:1046A0004EAF5FAF6A976D961FAE6D97A2961FAE25
:1046B000A29744E550E04C0F5D1FC256DF4F488380
:1046C0005983CE59D04048E0FE01E256FF4FDE014B
:1046D000A658BF4F01900D924A95E1F748E0FE01C0
:1046E000E658FF4FDE01119601900D924A95E1F7D1
:1046F00019862A873B878C879D871F8684E590E0F3
:104700008C0F9D1F888B998B64961EAE1FAE64978D
:104710004AE0BC01675F7F4F835591090E944020AA
:10472000CE0188529F4F0E94A90DA2968FADA297ED
:1047300085FD1AC090E080E0809331289093322864
:10474000C7010E94A90DCD51DF4FCDBFDEBFDF9164
:10475000CF911F910F91FF90EF90DF90CF90BF907E
:10476000AF909F908F9008956EE774EA6F968EAD2C
:104770009FAD6F970E941E200097E1F20E94680C87
:10478000DBCFEB968FAFEB97EC961FAEEC97CD801F
:10479000DE809FEFC91AD90AB601CE0101960E94A8
:1047A0005F10882309F44BCF29813A818D819E8146
:1047B000BE0166587F4F820F931F0E940F31CD823A
:1047C000DE828091BB299091BC298017910759F115
:1047D0000E9401066093A5297093A6298093A729BA
:1047E0009093A8298DE999E20E94220897FFC9CFEA
:1047F0000E9401068090A5299090A629A090A72943
:10480000B090A829681979098A099B098090A12983
:104810009090A229A090A329B090A42968157905A9
:104820008A059B05F8F28D819E811016110624F4ED
:104830008017910709F003CF29813A81C852DF4FD1
:1048400028833983C85DD0402B813C81C652DF4F1D
:1048500028833983CA5DD040C452DF4F888399834F
:10486000CC5DD04019821A821B821C821D821E825E
:10487000F8CE1F920F920FB60F9211242F933F93F1
:104880004F935F936F937F938F939F93AF93BF9358
:10489000409195285091962860919728709198287A
:1048A000809193289091942820919128309192287A
:1048B000420F531F611D711D20918F283091902848
:1048C000820F931F883E23E0920730F0885E93406A
:1048D0004F5F5F4F6F4F7F4F809393289093942843
:1048E0004093952850939628609397287093982822
:1048F00080919D2890919E28A0919F28B091A028FA
:104900000196A11DB11D80939D2890939E28A09390
:104910009F28B093A02881E08093B60ABF91AF9101
:104920009F918F917F916F915F914F913F912F91C7
:104930000F900FBE0F901F9018951F920F920FB6F9
:104940000F9211242F933F934F935F936F937F9315
:104950008F939F93AF93BF93EF93FF938CEE98E267
:104960000E94A003FF91EF91BF91AF919F918F9112
:104970007F916F915F914F913F912F910F900FBE5B
:104980000F901F9018951F920F920FB60F9211243F
:104990002F933F934F935F936F937F938F939F9347
:1049A000AF93BF93EF93FF93E091F828F091F9282C
:1049B000818181FD2FC060818091FE288F5F8F7380
:1049C0009091FF28891741F0E091FE28F0E0E45132
:1049D000F74D618F8093FE288091852990918629DB
:1049E000009739F0DC01ED91FC910190F081E02D10
:1049F0000995FF91EF91BF91AF919F918F917F9119
:104A00006F915F914F913F912F910F900FBE0F903B
:104A10001F9018958081EDCFCF93DF9389E693EABD
:104A200080939D2990939E298AEC99E20E94A90D7A
:104A3000C0EDD9E288819981009741F00E94AB2FA7
:104A40001A821B82188219821C821D8226968AE293
:104A5000CC30D80779F7DF91CF9108950F931F934A
:104A6000CF93DF93E4EEF8E280E099E0ADE3B0E0CD
:104A700080839183A283B3831482158281E090E0C6
:104A800086839783E2EAF8E28EEE92EA808391834E
:104A9000178281E0868391E2928392E2948390E28E
:104AA000938396E19583ECEEF8E21282138248EE4E
:104AB00053E060E070E044835583668377832CE0A5
:104AC00033EA2083318320E638E0248735879AE172
:104AD00096879BE1978790E4908B128A138A148AB9
:104AE000158A96E2968B178A108E1092852910925D
:104AF0008629E0EDF9E29CE3DF011D929A95E9F742
:104B0000E7E8F9E200E513EC20E030E000831183F0
:104B10002283338314821582EDE8F9E21282138234
:104B200044835583668377832CE233EA2083318381
:104B30009FEF94878787CDE9D9E21A821B824C8345
:104B40005D836E837F8329E633EA28833983EC878C
:104B5000FD8726E533EA2E873F8726E233EA288B56
:104B6000398B1A8A1B8A1C8A1D8A23E839E02E8B0E
:104B70003F8B8BA78CA767EC73EA8AEC99E20E94C3
:104B80008710188E198E1A8E1B8E8FEF9FEF8C8FC9
:104B90009D8F1E8E1F8E8BE893EA88A399A38CE9C4
:104BA00093EA8AA39BA31CA21DA21EA280E395E701
:104BB000A0E0B0E08FA398A7A9A7BAA7DF91CF91F3
:104BC0001F910F910895CF93DF93CDB7DEB7CC5BE4
:104BD000D109CDBFDEBF88ED90E084BF9093610026
:104BE00080E094E2A4EFB0E080930328909304283F
:104BF000A0930528B09306288091020686608093D2
:104C00000206809100068160809300068091020672
:104C10008F7C809302068091A0008F788093A00003
:104C2000809102068061809302061092E20581E085
:104C30008093E40583E08093010A8FEF90E08093F6
:104C4000260A9093270A80E890E08093380A909390
:104C5000390A80933A0A90933B0A80933C0A9093D6
:104C60003D0A8BE08093000A8091E5058160809386
:104C7000E5058091E50582608093E505E0E8FAE0CE
:104C800037E02FEF90E885E0318324879587808394
:104C90007096E03C4AE0F407B9F780E094E0809336
:104CA0009B2890939C2880919B2890919C282FEF83
:104CB00030E0B9010E942B2D6093992870939A28B7
:104CC00080919B2890919C28E8EEF3E0BF010E9420
:104CD0002B2D609391287093922880919B2890911E
:104CE0009C28BF010E942B2D80938F2890939028A1
:104CF0002093BC0A3093BD0A8091B50A81608093ED
:104D0000B50A84E08093B00A8091B00A81608093F4
:104D1000B00A789461E070E08CE10E94580461E090
:104D200070E08CE10E94B80461E070E08DE10E94C7
:104D3000580461E070E08DE10E94B80461E070E029
:104D400083E20E94580461E070E083E20E94B804AC
:104D500061E070E08EE10E94580461E070E08EE155
:104D60000E94B80440E855E260E070E08CEE98E202
:104D70000E949B0D8EE090E08093492890934A28F2
:104D800080E090E0A0EFB1E480934F28909350280A
:104D9000A0935128B093522880E090E0A0E0B4E4C2
:104DA00080936B2890936C28A0936D28B0936E2805
:104DB00097E0C92E98E2D92E20E1A22E28E2B22E49
:104DC00099249A9480912F2890913028039709F480
:104DD000B6C061E874EA8CEE98E20E94540EF601C7
:104DE00001900020E9F78F0108501842F501019069
:104DF0000020E9F7CF01815198427C018091A128E0
:104E0000811102C00E94561580E00E943C060E945B
:104E1000831662E081E10E94770640E06E2D80E11A
:104E200098E20E94BF0641E0602F87E098E20E946E
:104E3000BF06FF2496E0E90EF11CE00EF11CC7014D
:104E400083709927892B31F00E94F906EFEFEE1A53
:104E5000FE0AF5CF0E94D30780E00E943C060E9424
:104E600083161FA21982AE014F5F5F4FBE01695DBD
:104E70007F4F81E10E942007892B09F49FA20E94A5
:104E8000D3078FA114E08F3F09F44CC00E940106A4
:104E90002B013C0110E00E94010664197509860986
:104EA000970920918729309188294091892950912B
:104EB0008A296217730784079507A0F5E0918B296B
:104EC000F0918C29309709F0099564E670E080E054
:104ED00090E00E94D1058091A128811102C00E941A
:104EE000561580E00E943C060E94831660E080E236
:104EF0000E9477060E94D30780E00E943C060E9431
:104F000083169FA21982AE014F5F5F4FBE01695D9C
:104F10007F4F80E20E9420070E94D3071FA1133019
:104F200008F4B9CF812F90E080932F2890933028F8
:104F300064EF71E080E090E00E94D10543CF67E923
:104F400074EA8CEE98E20E94540E86E293EA8FA3F4
:104F500098A719A61AA61BA61CA68E010F5F1F4FA5
:104F600087E0F80111928A95E9F78BE298E28A834B
:104F70009B8387E298E28D839E8383E298E2888711
:104F800099878091A128811102C00E94561580E066
:104F90000E943C060E94831661E081E20E9477062F
:104FA0008FEF2C968FAF2C9741E061E0CE01855BAF
:104FB0009F4F0E94BF060E94F9060E94F9060E94B8
:104FC000D30780E00E943C060E948316A80163E09C
:104FD00081E20E946A070E94D30780912B2890915A
:104FE0002C28A0912D28B0912E2889A79AA7ABA78D
:104FF000BCA76CEE78E2CE0187960E94060E8CEE7E
:1050000098E20E94500E0E94042283E990E08C0FE7
:105010009D1F0996C954DF4F88839983C75BD04091
:105020001E0191EB290E311CE3E9F0E0EC0FFD1FAE
:105030003E96C754DF4FE883F983C95BD04083E9CC
:1050400090E08C0F9D1F4E96C554DF4F8883998347
:10505000CB5BD040C754DF4FE881F981C95BD040BA
:10506000CD56DF4FE883F983C359D040CB56DF4F8D
:10507000E883F983C559D040C554DF4F88819981B1
:10508000CB5BD040C956DF4F88839983C759D04046
:10509000C756DF4F88839983C959D040C556DF4F23
:1050A0001882CB59D040C056DF4F1882C05AD0402A
:1050B00080EEE82EFF24F39480914928863028F072
:1050C0008E506FEF70E0873090F48093060691E089
:1050D0009093080680910B0680FFFCCF9FB7F89451
:1050E00080911006609111069FBF762F682F609304
:1050F000592870935A2840906B2850906C286090E3
:105100006D2870906E28072E000C880B990B0E945A
:10511000912B4B015C01A30192010E94952D20E08F
:1051200030E040E85AE30E94F02BA30192010E9474
:10513000962D9B01AC0120936B2830936C284093F3
:105140006D2850936E28C501B4010E94952D60937F
:1051500063287093642880936528909366289B0148
:10516000AC010E94F02B60937B2870937C28809385
:105170007D2890937E2820917F283091802840912F
:105180008128509182280E94962D60937F287093E9
:1051900080288093812890938228E1E0EE1AF1081C
:1051A00009F08ACF20E030E040EF53E40E94022E65
:1051B0000E94B52E6B017C0123E333E343E55BE3FF
:1051C00060914F28709150288091512890915228D9
:1051D0000E94F02BA70196010E94F02B6B017C012D
:1051E000C0924328D0924428E0924528F092462865
:1051F00010927F2810928028109281281092822885
:10520000AC019B010E94F52E65EB74EA81111BC075
:1052100046015701E894B7F82FEF3FEF4FE75FE7FC
:10522000C501B4010E94F52E8111D2C02FEF3FEFCE
:105230004FE75FE7C501B4010E948A2B18160CF0F6
:10524000C7C069EB74EA8CEE98E20E94B10D8CEE57
:1052500098E20E94500EAE014D565F4F61EC74EA29
:10526000C954DF4F88819981C75BD0400E94CE210D
:10527000FC01892B81F020913128309132289481D2
:1052800090789A609483C901330FAA0BBB0B80837B
:105290009183A283B383AE014D565F4F6AEC74EAEB
:1052A000C954DF4F88819981C75BD0400E94CE21CD
:1052B000FC01892B41F0948190789C609483C0829A
:1052C000D182E282F38267EC73EAC1010E94871007
:1052D000E1962EAE3FAEE197CF56DF4F188219828E
:1052E000C159D04084E2FE01E159FF4FDE01A55BC8
:1052F000BF4F01900D928A95E1F784E2FE01E55BD4
:10530000FF4FDE01979601900D928A95E1F7BE015D
:10531000695D7F4FC8010E949214CE0187960E945A
:10532000C610B801C954DF4F88819981C75BD0404E
:105330000E94F511C8010E94C610CE01855B9F4FE7
:105340000E94C610CE0181599F4F0E94C61081E075
:1053500090E08093B5299093B62963E674EAC8017A
:105360000E94871061ED74EACE0187960E94871033
:10537000F101208131814481558169817A818FA138
:1053800098A50E94D20ECE0187960E94A90DC80151
:105390000E94A90D8091B5299091B62902973CF001
:1053A0000E941B1F8639914011F40E940422C10102
:1053B0000E94A90D68EE73E080E090E00E94D105A4
:1053C00080E090E0892B09F445CE0E9400002CCEAD
:1053D0002FEF3FEF4FE75FE4C701B6010E94AA2E0F
:1053E00018161CF46DEB74EA2ECF2FEF3FEF4FE74A
:1053F0005FECC701B6010E948A2B87FDF3CF20E046
:1054000030E0A901C701B6010E948A2B87FF5CC06A
:105410006DE28CEE98E20E94E503C701B601905858
:105420002AE037ED43EA5BE30E94962D2B013C0115
:105430000E947B2E4B015C010E948F2B9B01AC01D3
:10544000C301B2010E94952D2B013C012AE0B50158
:10545000A4018CEE98E20E94C00D65E974EA8CEE1E
:1054600098E20E94B10D20E030E040E251E4C30137
:10547000B2010E94F02B2B013C010E947B2E4B01BC
:10548000B12CA12C2AE0B501A4018CEE98E20E9477
:10549000C00DC501B4010E948F2B9B01AC01C3015B
:1054A000B2010E94952D20E030E040E251E40E94DC
:1054B000F02B0E947B2EAB0170E060E02AE08CEEC6
:1054C00098E20E94C00DC3CEC701B601A9CFB0E0DB
:1054D000A0E0EDE6FAE20C94EC2C5C016B017A01A1
:1054E0006115710519F0FB0180839183E114F104CA
:1054F00051F0C7010297839730F040E030E020E0A0
:1055000090E072C05E01E5012196F5011081812FC6
:1055100090E00E947E2B892BA9F71D3201F5219680
:10552000F501118101E0E114F10409F4DAC0F0E1C0
:10553000EF16F10409F082C0103359F488818F7D91
:10554000883509F076C0198122960260F0E1EF2ECD
:10555000F12C812C912CA12C88E0B82E8CC01B3210
:1055600021F4E5012296F501118100E0DCCFEAE0AB
:10557000EE16F10409F4BBC0F0E1EF16F10409F0F6
:105580006DC0E7CF78E0E72EF12C812C912CA12C77
:1055900060E1B62E70C03FE9310F3A3128F439EAA4
:1055A000332E80C021E09AC0302F3170C114D10455
:1055B00031F0222309F12197F601C083D18327FF1F
:1055C00021C060E070E080E090E8311104C06FEF2E
:1055D0007FEF8FEF9FE722E230E020930C2A309399
:1055E0000D2A462F372F282F642F732F822FCDB7E8
:1055F000DEB7E1E10C94052D01FF04C02297F6010E
:10560000C083D183332341F0909580957095619547
:105610007F4F8F4F9F4FE5CF97FFE3CF82E290E020
:1056200080930C2A90930D2A6FEF7FEF8FEF9FE707
:10563000D8CF10E3E114F10409F4A4CF28E0E21676
:10564000F10409F4A2CF0CF092CF812C912CA12C63
:10565000E0E4BE2E82E0E816F10469F060E070E05C
:1056600080E090E897010F2C000C440B550B0E9432
:10567000BE2C49015A0120E060E070E0CB01270117
:105680000F2C000C66087708FE0150ED352E310E08
:1056900039E0331540F43FEB310F3A3108F07BCF5E
:1056A00049EC342E310E3E141F040CF07DCF27FD43
:1056B00015C086169706A806B90678F0A3019201D0
:1056C0000E94AE2C630D711D811D911D613071050D
:1056D000810520E8920708F465CF2FEF219610810D
:1056E000D3CF103309F42ACF2AE0E22EF12C9CEC20
:1056F000892E982CA82C9CE0B92EBDCF91110C942A
:10570000872B803219F089508550C8F70895992762
:10571000882708950E94CC2B08F481E00895E8942E
:1057200009C097FB3EF490958095709561957F4FE9
:105730008F4F9F4F9923A9F0F92F96E9BB27939597
:10574000F695879577956795B795F111F8CFFAF4A7
:10575000BB0F11F460FF1BC06F5F7F4F8F4F9F4FD8
:1057600016C0882311F096E911C0772321F09EE836
:10577000872F762F05C0662371F096E8862F70E09C
:1057800060E02AF09A95660F771F881FDAF7880F76
:105790009695879597F90895990F0008550FAA0BCC
:1057A000E0E8FEEF16161706E807F907C0F0121634
:1057B0001306E407F50798F0621B730B840B950B37
:1057C00039F40A2661F0232B242B252B21F408958C
:1057D0000A2609F4A140A6958FEF811D811D089529
:1057E0000E94032C0C94742C0E94662C38F00E94AA
:1057F0006D2C20F0952311F00C945D2C0C94632CEF
:1058000011240C94A82C0E94852C70F3959FC1F351
:10581000950F50E0551F629FF001729FBB27F00D5E
:10582000B11D639FAA27F00DB11DAA1F649F6627B3
:10583000B00DA11D661F829F2227B00DA11D621F02
:10584000739FB00DA11D621F839FA00D611D221FBC
:10585000749F3327A00D611D231F849F600D211DA0
:10586000822F762F6A2F11249F5750409AF0F1F023
:1058700088234AF0EE0FFF1FBB1F661F771F881F8C
:1058800091505040A9F79E3F510580F00C945D2C3B
:105890000C94A82C5F3FE4F3983ED4F3869577955B
:1058A0006795B795F795E7959F5FC1F7FE2B880F32
:1058B000911D9695879597F9089597F99F6780E8C8
:1058C00070E060E008959FEF80EC089500240A9452
:1058D0001616170618060906089500240A941216CB
:1058E0001306140605060895092E0394000C11F4FE
:1058F000882352F0BB0F40F4BF2B11F460FF04C0AB
:105900006F5F7F4F8F4F9F4F089557FD9058440F03
:10591000551F59F05F3F71F04795880F97FB991F0E
:1059200061F09F3F79F087950895121613061406CB
:10593000551FF2CF4695F1DF08C016161706180658
:10594000991FF1CF86957105610508940895E89433
:10595000BB2766277727CB0197F90895DB018F9343
:105960009F930E94E02CBF91AF91A29F800D911D4B
:10597000A39F900DB29F900D11240895A1E21A2EBD
:10598000AA1BBB1BFD010DC0AA1FBB1FEE1FFF1FE3
:10599000A217B307E407F50720F0A21BB30BE40B33
:1059A000F50B661F771F881F991F1A9469F760957A
:1059B0007095809590959B01AC01BD01CF01089534
:1059C0000E941C2DA59F900DB49F900DA49F800D4B
:1059D000911D112408952F923F924F925F926F92E2
:1059E0007F928F929F92AF92BF92CF92DF92EF926F
:1059F000FF920F931F93CF93DF93CDB7DEB7CA1BF0
:105A0000DB0BCDBFDEBF09942A88398848885F84C4
:105A10006E847D848C849B84AA84B984C884DF804E
:105A2000EE80FD800C811B81AA81B981CE0FD11D32
:105A3000CDBFDEBFED010895A29FB001B39FC001AD
:105A4000A39F700D811D1124911DB29F700D811DAA
:105A50001124911D0895AA1BBB1B51E107C0AA1F69
:105A6000BB1FA617B70710F0A61BB70B881F991FFF
:105A70005A95A9F780959095BC01CD010895052E02
:105A800097FB1EF400940E94562D57FD07D00E94EC
:105A9000BE2C07FC03D04EF40C94562D5095409527
:105AA000309521953F4F4F4F5F4F089590958095CA
:105AB000709561957F4F8F4F9F4F0895B7FF0C945E
:105AC000E02C0E94E02C821B930B089597FD10940C
:105AD000002E083098F00850232F342F452F562FD2
:105AE000672F782F892F912DF4CF1594979587954F
:105AF0007795679557954795379527950A95AAF70E
:105B00001124002D08950024A7FD00942A173005C4
:105B10004005500560057005800590050895EE0F5D
:105B2000FF1F0590F491E02D09945058BB27AA2738
:105B30000E94AD2D0C94742C0E94662C38F00E94AB
:105B40006D2C20F039F49F3F19F426F40C94632C4B
:105B50000EF4E095E7FB0C945D2CE92F0E94852C58
:105B600058F3BA17620773078407950720F079F492
:105B7000A6F50C94A72C0EF4E0950B2EBA2FA02DB1
:105B80000B01B90190010C01CA01A0011124FF27EA
:105B9000591B99F0593F50F4503E68F11A16F040E5
:105BA000A22F232F342F4427585FF3CF46953795E4
:105BB0002795A795F0405395C9F77EF41F16BA0BA9
:105BC000620B730B840BBAF09150A1F0FF0FBB1F57
:105BD000661F771F881FC2F70EC0BA0F621F731FA0
:105BE000841F48F4879577956795B795F7959E3FFD
:105BF00008F0B0CF9395880F08F09927EE0F97958E
:105C0000879508950E94162E0C94742C0E946D2C7A
:105C100058F00E94662C40F029F45F3F29F00C9464
:105C20005D2C51110C94A82C0C94632C0E94852C93
:105C300068F39923B1F3552391F3951B550BBB27BB
:105C4000AA2762177307840738F09F5F5F4F220F00
:105C5000331F441FAA1FA9F335D00E2E3AF0E0E8F7
:105C600032D091505040E695001CCAF72BD0FE2F41
:105C700029D0660F771F881FBB1F261737074807D5
:105C8000AB07B0E809F0BB0B802DBF01FF2793588D
:105C90005F4F3AF09E3F510578F00C945D2C0C94C8
:105CA000A82C5F3FE4F3983ED4F3869577956795EB
:105CB000B795F7959F5FC9F7880F911D96958795C2
:105CC00097F90895E1E0660F771F881FBB1F6217E1
:105CD00073078407BA0720F0621B730B840BBA0B9F
